{
  "_format": "hh-sol-artifact-1",
  "contractName": "FileNFT",
  "sourceName": "contracts/kezayya.sol",
  "abi": [
    {
      "inputs": [],
      "stateMutability": "nonpayable",
      "type": "constructor"
    },
    {
      "anonymous": false,
      "inputs": [
        {
          "indexed": true,
          "internalType": "address",
          "name": "owner",
          "type": "address"
        },
        {
          "indexed": true,
          "internalType": "address",
          "name": "approved",
          "type": "address"
        },
        {
          "indexed": true,
          "internalType": "uint256",
          "name": "tokenId",
          "type": "uint256"
        }
      ],
      "name": "Approval",
      "type": "event"
    },
    {
      "anonymous": false,
      "inputs": [
        {
          "indexed": true,
          "internalType": "address",
          "name": "owner",
          "type": "address"
        },
        {
          "indexed": true,
          "internalType": "address",
          "name": "operator",
          "type": "address"
        },
        {
          "indexed": false,
          "internalType": "bool",
          "name": "approved",
          "type": "bool"
        }
      ],
      "name": "ApprovalForAll",
      "type": "event"
    },
    {
      "anonymous": false,
      "inputs": [
        {
          "indexed": true,
          "internalType": "uint256",
          "name": "tokenId",
          "type": "uint256"
        },
        {
          "indexed": false,
          "internalType": "address",
          "name": "owner",
          "type": "address"
        },
        {
          "indexed": false,
          "internalType": "address",
          "name": "storageDrive",
          "type": "address"
        },
        {
          "indexed": false,
          "internalType": "bool",
          "name": "filePrivate",
          "type": "bool"
        },
        {
          "indexed": false,
          "internalType": "bool",
          "name": "shared",
          "type": "bool"
        }
      ],
      "name": "StorageItemCreated",
      "type": "event"
    },
    {
      "anonymous": false,
      "inputs": [
        {
          "indexed": true,
          "internalType": "address",
          "name": "from",
          "type": "address"
        },
        {
          "indexed": true,
          "internalType": "address",
          "name": "to",
          "type": "address"
        },
        {
          "indexed": true,
          "internalType": "uint256",
          "name": "tokenId",
          "type": "uint256"
        }
      ],
      "name": "Transfer",
      "type": "event"
    },
    {
      "inputs": [
        {
          "internalType": "address",
          "name": "to",
          "type": "address"
        },
        {
          "internalType": "uint256",
          "name": "tokenId",
          "type": "uint256"
        }
      ],
      "name": "approve",
      "outputs": [],
      "stateMutability": "nonpayable",
      "type": "function"
    },
    {
      "inputs": [
        {
          "internalType": "address",
          "name": "owner",
          "type": "address"
        }
      ],
      "name": "balanceOf",
      "outputs": [
        {
          "internalType": "uint256",
          "name": "",
          "type": "uint256"
        }
      ],
      "stateMutability": "view",
      "type": "function"
    },
    {
      "inputs": [
        {
          "internalType": "string",
          "name": "tokenURI",
          "type": "string"
        },
        {
          "internalType": "bool",
          "name": "filePrivate",
          "type": "bool"
        }
      ],
      "name": "createFile",
      "outputs": [
        {
          "internalType": "uint256",
          "name": "",
          "type": "uint256"
        }
      ],
      "stateMutability": "payable",
      "type": "function"
    },
    {
      "inputs": [
        {
          "internalType": "uint256",
          "name": "tokenId",
          "type": "uint256"
        }
      ],
      "name": "createFilePrivate",
      "outputs": [],
      "stateMutability": "payable",
      "type": "function"
    },
    {
      "inputs": [
        {
          "internalType": "uint256",
          "name": "tokenId",
          "type": "uint256"
        }
      ],
      "name": "createFileShare",
      "outputs": [],
      "stateMutability": "payable",
      "type": "function"
    },
    {
      "inputs": [],
      "name": "fetchAllStorageItems",
      "outputs": [
        {
          "components": [
            {
              "internalType": "uint256",
              "name": "tokenId",
              "type": "uint256"
            },
            {
              "internalType": "address",
              "name": "owner",
              "type": "address"
            },
            {
              "internalType": "address",
              "name": "storageDrive",
              "type": "address"
            },
            {
              "internalType": "bool",
              "name": "filePrivate",
              "type": "bool"
            },
            {
              "internalType": "bool",
              "name": "shared",
              "type": "bool"
            }
          ],
          "internalType": "struct FileNFT.StorageItem[]",
          "name": "",
          "type": "tuple[]"
        }
      ],
      "stateMutability": "view",
      "type": "function"
    },
    {
      "inputs": [],
      "name": "fetchMyFiles",
      "outputs": [
        {
          "components": [
            {
              "internalType": "uint256",
              "name": "tokenId",
              "type": "uint256"
            },
            {
              "internalType": "address",
              "name": "owner",
              "type": "address"
            },
            {
              "internalType": "address",
              "name": "storageDrive",
              "type": "address"
            },
            {
              "internalType": "bool",
              "name": "filePrivate",
              "type": "bool"
            },
            {
              "internalType": "bool",
              "name": "shared",
              "type": "bool"
            }
          ],
          "internalType": "struct FileNFT.StorageItem[]",
          "name": "",
          "type": "tuple[]"
        }
      ],
      "stateMutability": "view",
      "type": "function"
    },
    {
      "inputs": [],
      "name": "fetchMyPrivateFiles",
      "outputs": [
        {
          "components": [
            {
              "internalType": "uint256",
              "name": "tokenId",
              "type": "uint256"
            },
            {
              "internalType": "address",
              "name": "owner",
              "type": "address"
            },
            {
              "internalType": "address",
              "name": "storageDrive",
              "type": "address"
            },
            {
              "internalType": "bool",
              "name": "filePrivate",
              "type": "bool"
            },
            {
              "internalType": "bool",
              "name": "shared",
              "type": "bool"
            }
          ],
          "internalType": "struct FileNFT.StorageItem[]",
          "name": "",
          "type": "tuple[]"
        }
      ],
      "stateMutability": "view",
      "type": "function"
    },
    {
      "inputs": [
        {
          "internalType": "uint256",
          "name": "tokenId",
          "type": "uint256"
        }
      ],
      "name": "getApproved",
      "outputs": [
        {
          "internalType": "address",
          "name": "",
          "type": "address"
        }
      ],
      "stateMutability": "view",
      "type": "function"
    },
    {
      "inputs": [
        {
          "internalType": "address",
          "name": "owner",
          "type": "address"
        },
        {
          "internalType": "address",
          "name": "operator",
          "type": "address"
        }
      ],
      "name": "isApprovedForAll",
      "outputs": [
        {
          "internalType": "bool",
          "name": "",
          "type": "bool"
        }
      ],
      "stateMutability": "view",
      "type": "function"
    },
    {
      "inputs": [],
      "name": "name",
      "outputs": [
        {
          "internalType": "string",
          "name": "",
          "type": "string"
        }
      ],
      "stateMutability": "view",
      "type": "function"
    },
    {
      "inputs": [
        {
          "internalType": "uint256",
          "name": "tokenId",
          "type": "uint256"
        }
      ],
      "name": "ownerOf",
      "outputs": [
        {
          "internalType": "address",
          "name": "",
          "type": "address"
        }
      ],
      "stateMutability": "view",
      "type": "function"
    },
    {
      "inputs": [
        {
          "internalType": "address",
          "name": "from",
          "type": "address"
        },
        {
          "internalType": "address",
          "name": "to",
          "type": "address"
        },
        {
          "internalType": "uint256",
          "name": "tokenId",
          "type": "uint256"
        }
      ],
      "name": "safeTransferFrom",
      "outputs": [],
      "stateMutability": "nonpayable",
      "type": "function"
    },
    {
      "inputs": [
        {
          "internalType": "address",
          "name": "from",
          "type": "address"
        },
        {
          "internalType": "address",
          "name": "to",
          "type": "address"
        },
        {
          "internalType": "uint256",
          "name": "tokenId",
          "type": "uint256"
        },
        {
          "internalType": "bytes",
          "name": "data",
          "type": "bytes"
        }
      ],
      "name": "safeTransferFrom",
      "outputs": [],
      "stateMutability": "nonpayable",
      "type": "function"
    },
    {
      "inputs": [
        {
          "internalType": "address",
          "name": "operator",
          "type": "address"
        },
        {
          "internalType": "bool",
          "name": "approved",
          "type": "bool"
        }
      ],
      "name": "setApprovalForAll",
      "outputs": [],
      "stateMutability": "nonpayable",
      "type": "function"
    },
    {
      "inputs": [
        {
          "internalType": "bytes4",
          "name": "interfaceId",
          "type": "bytes4"
        }
      ],
      "name": "supportsInterface",
      "outputs": [
        {
          "internalType": "bool",
          "name": "",
          "type": "bool"
        }
      ],
      "stateMutability": "view",
      "type": "function"
    },
    {
      "inputs": [],
      "name": "symbol",
      "outputs": [
        {
          "internalType": "string",
          "name": "",
          "type": "string"
        }
      ],
      "stateMutability": "view",
      "type": "function"
    },
    {
      "inputs": [
        {
          "internalType": "uint256",
          "name": "tokenId",
          "type": "uint256"
        }
      ],
      "name": "tokenURI",
      "outputs": [
        {
          "internalType": "string",
          "name": "",
          "type": "string"
        }
      ],
      "stateMutability": "view",
      "type": "function"
    },
    {
      "inputs": [
        {
          "internalType": "address",
          "name": "from",
          "type": "address"
        },
        {
          "internalType": "address",
          "name": "to",
          "type": "address"
        },
        {
          "internalType": "uint256",
          "name": "tokenId",
          "type": "uint256"
        }
      ],
      "name": "transferFrom",
      "outputs": [],
      "stateMutability": "nonpayable",
      "type": "function"
    }
  ],
  "bytecode": "0x60806040523480156200001157600080fd5b50604051806040016040528060078152602001664b657a6179796160c81b815250604051806040016040528060078152602001664b455a4159594160c81b81525081600090805190602001906200006a9291906200009b565b508051620000809060019060208401906200009b565b5050600980546001600160a01b03191633179055506200017e565b828054620000a99062000141565b90600052602060002090601f016020900481019282620000cd576000855562000118565b82601f10620000e857805160ff191683800117855562000118565b8280016001018555821562000118579182015b8281111562000118578251825591602001919060010190620000fb565b50620001269291506200012a565b5090565b5b808211156200012657600081556001016200012b565b600181811c908216806200015657607f821691505b602082108114156200017857634e487b7160e01b600052602260045260246000fd5b50919050565b611e43806200018e6000396000f3fe6080604052600436106101145760003560e01c80636352211e116100a0578063a22cb46511610064578063a22cb465146102df578063b2fc29ac146102ff578063b88d4fde14610331578063c87b56dd14610351578063e985e9c51461037157600080fd5b80636352211e1461026057806370a0823114610280578063917a3e5f146102a0578063957b5ba3146102b557806395d89b41146102ca57600080fd5b8063095ea7b3116100e7578063095ea7b3146101bd57806323b872dd146101dd57806325dbae25146101fd57806337a899861461021e57806342842e0e1461024057600080fd5b806301ffc9a71461011957806306fdde031461014e5780630778fa4d14610170578063081812fc14610185575b600080fd5b34801561012557600080fd5b5061013961013436600461186b565b6103ba565b60405190151581526020015b60405180910390f35b34801561015a57600080fd5b5061016361040c565b60405161014591906118e0565b61018361017e3660046118f3565b61049e565b005b34801561019157600080fd5b506101a56101a03660046118f3565b6104d1565b6040516001600160a01b039091168152602001610145565b3480156101c957600080fd5b506101836101d8366004611928565b6104f8565b3480156101e957600080fd5b506101836101f8366004611952565b610613565b61021061020b366004611a2a565b610644565b604051908152602001610145565b34801561022a57600080fd5b50610233610686565b6040516101459190611a8c565b34801561024c57600080fd5b5061018361025b366004611952565b61080d565b34801561026c57600080fd5b506101a561027b3660046118f3565b610828565b34801561028c57600080fd5b5061021061029b366004611b0a565b610888565b3480156102ac57600080fd5b5061023361090e565b3480156102c157600080fd5b50610233610b34565b3480156102d657600080fd5b50610163610d14565b3480156102eb57600080fd5b506101836102fa366004611b25565b610d23565b61018361030d3660046118f3565b6000908152600a60205260409020600201805460ff60a01b1916600160a01b179055565b34801561033d57600080fd5b5061018361034c366004611b4f565b610d32565b34801561035d57600080fd5b5061016361036c3660046118f3565b610d6a565b34801561037d57600080fd5b5061013961038c366004611bcb565b6001600160a01b03918216600090815260056020908152604080832093909416825291909152205460ff1690565b60006001600160e01b031982166380ac58cd60e01b14806103eb57506001600160e01b03198216635b5e139f60e01b145b8061040657506301ffc9a760e01b6001600160e01b03198316145b92915050565b60606000805461041b90611bf5565b80601f016020809104026020016040519081016040528092919081815260200182805461044790611bf5565b80156104945780601f1061046957610100808354040283529160200191610494565b820191906000526020600020905b81548152906001019060200180831161047757829003601f168201915b5050505050905090565b6000818152600a60205260409020600201805460ff60a81b1916600160a81b1790556104ce600880546001019055565b50565b60006104dc82610e7b565b506000908152600460205260409020546001600160a01b031690565b600061050382610828565b9050806001600160a01b0316836001600160a01b031614156105765760405162461bcd60e51b815260206004820152602160248201527f4552433732313a20617070726f76616c20746f2063757272656e74206f776e656044820152603960f91b60648201526084015b60405180910390fd5b336001600160a01b03821614806105925750610592813361038c565b6106045760405162461bcd60e51b815260206004820152603e60248201527f4552433732313a20617070726f76652063616c6c6572206973206e6f7420746f60448201527f6b656e206f776e6572206e6f7220617070726f76656420666f7220616c6c0000606482015260840161056d565b61060e8383610eda565b505050565b61061d3382610f48565b6106395760405162461bcd60e51b815260040161056d90611c30565b61060e838383610fc6565b6000610654600780546001019055565b600061065f60075490565b905061066b3382611162565b61067581856112a4565b61067f818461133e565b9392505050565b6060600061069360075490565b90506000808267ffffffffffffffff8111156106b1576106b161198e565b60405190808252806020026020018201604052801561070a57816020015b6040805160a0810182526000808252602080830182905292820181905260608201819052608082015282526000199092019101816106cf5790505b50905060005b838110156108055730600a6000610728846001611c94565b81526020810191909152604001600020600201546001600160a01b031614156107f3576000610758826001611c94565b6000818152600a6020908152604091829020825160a0810184528154815260018201546001600160a01b039081169382019390935260028201549283169381019390935260ff600160a01b8304811615156060850152600160a81b909204909116151560808301528551929350918590879081106107d8576107d8611cac565b60209081029190910101526107ee600186611c94565b945050505b806107fd81611cc2565b915050610710565b509392505050565b61060e83838360405180602001604052806000815250610d32565b6000818152600260205260408120546001600160a01b0316806104065760405162461bcd60e51b8152602060048201526018602482015277115490cdcc8c4e881a5b9d985b1a59081d1bdad95b88125160421b604482015260640161056d565b60006001600160a01b0382166108f25760405162461bcd60e51b815260206004820152602960248201527f4552433732313a2061646472657373207a65726f206973206e6f7420612076616044820152683634b21037bbb732b960b91b606482015260840161056d565b506001600160a01b031660009081526003602052604090205490565b6060600061091b60075490565b905060008060005b8381101561097e5733600a600061093b846001611c94565b81526020810191909152604001600020600101546001600160a01b0316141561096c57610969600184611c94565b92505b8061097681611cc2565b915050610923565b5060008267ffffffffffffffff81111561099a5761099a61198e565b6040519080825280602002602001820160405280156109f357816020015b6040805160a0810182526000808252602080830182905292820181905260608201819052608082015282526000199092019101816109b85790505b50905060005b84811015610b2b5733600a6000610a11846001611c94565b81526020810191909152604001600020600101546001600160a01b0316148015610a6c5750600a6000610a45836001611c94565b815260200190815260200160002060020160149054906101000a900460ff16151560011515145b15610b19576000610a7e826001611c94565b6000818152600a6020908152604091829020825160a0810184528154815260018201546001600160a01b039081169382019390935260028201549283169381019390935260ff600160a01b8304811615156060850152600160a81b90920490911615156080830152855192935091859087908110610afe57610afe611cac565b6020908102919091010152610b14600186611c94565b945050505b80610b2381611cc2565b9150506109f9565b50949350505050565b60606000610b4160075490565b905060008060005b83811015610ba45733600a6000610b61846001611c94565b81526020810191909152604001600020600101546001600160a01b03161415610b9257610b8f600184611c94565b92505b80610b9c81611cc2565b915050610b49565b5060008267ffffffffffffffff811115610bc057610bc061198e565b604051908082528060200260200182016040528015610c1957816020015b6040805160a081018252600080825260208083018290529282018190526060820181905260808201528252600019909201910181610bde5790505b50905060005b84811015610b2b5733600a6000610c37846001611c94565b81526020810191909152604001600020600101546001600160a01b03161415610d02576000610c67826001611c94565b6000818152600a6020908152604091829020825160a0810184528154815260018201546001600160a01b039081169382019390935260028201549283169381019390935260ff600160a01b8304811615156060850152600160a81b90920490911615156080830152855192935091859087908110610ce757610ce7611cac565b6020908102919091010152610cfd600186611c94565b945050505b80610d0c81611cc2565b915050610c1f565b60606001805461041b90611bf5565b610d2e33838361143c565b5050565b610d3c3383610f48565b610d585760405162461bcd60e51b815260040161056d90611c30565b610d648484848461150b565b50505050565b6060610d7582610e7b565b60008281526006602052604081208054610d8e90611bf5565b80601f0160208091040260200160405190810160405280929190818152602001828054610dba90611bf5565b8015610e075780601f10610ddc57610100808354040283529160200191610e07565b820191906000526020600020905b815481529060010190602001808311610dea57829003601f168201915b505050505090506000610e2560408051602081019091526000815290565b9050805160001415610e38575092915050565b815115610e6a578082604051602001610e52929190611cdd565b60405160208183030381529060405292505050919050565b610e738461153e565b949350505050565b6000818152600260205260409020546001600160a01b03166104ce5760405162461bcd60e51b8152602060048201526018602482015277115490cdcc8c4e881a5b9d985b1a59081d1bdad95b88125160421b604482015260640161056d565b600081815260046020526040902080546001600160a01b0319166001600160a01b0384169081179091558190610f0f82610828565b6001600160a01b03167f8c5be1e5ebec7d5bd14f71427d1e84f3dd0314c0f7b2291e5b200ac8c7c3b92560405160405180910390a45050565b600080610f5483610828565b9050806001600160a01b0316846001600160a01b03161480610f9b57506001600160a01b0380821660009081526005602090815260408083209388168352929052205460ff165b80610e735750836001600160a01b0316610fb4846104d1565b6001600160a01b031614949350505050565b826001600160a01b0316610fd982610828565b6001600160a01b03161461103d5760405162461bcd60e51b815260206004820152602560248201527f4552433732313a207472616e736665722066726f6d20696e636f72726563742060448201526437bbb732b960d91b606482015260840161056d565b6001600160a01b03821661109f5760405162461bcd60e51b8152602060048201526024808201527f4552433732313a207472616e7366657220746f20746865207a65726f206164646044820152637265737360e01b606482015260840161056d565b6110aa600082610eda565b6001600160a01b03831660009081526003602052604081208054600192906110d3908490611d0c565b90915550506001600160a01b0382166000908152600360205260408120805460019290611101908490611c94565b909155505060008181526002602052604080822080546001600160a01b0319166001600160a01b0386811691821790925591518493918716917fddf252ad1be2c89b69c2b068fc378daa952ba7f163c4a11628f55a4df523b3ef91a4505050565b6001600160a01b0382166111b85760405162461bcd60e51b815260206004820181905260248201527f4552433732313a206d696e7420746f20746865207a65726f2061646472657373604482015260640161056d565b6000818152600260205260409020546001600160a01b03161561121d5760405162461bcd60e51b815260206004820152601c60248201527f4552433732313a20746f6b656e20616c7265616479206d696e74656400000000604482015260640161056d565b6001600160a01b0382166000908152600360205260408120805460019290611246908490611c94565b909155505060008181526002602052604080822080546001600160a01b0319166001600160a01b03861690811790915590518392907fddf252ad1be2c89b69c2b068fc378daa952ba7f163c4a11628f55a4df523b3ef908290a45050565b6000828152600260205260409020546001600160a01b031661131f5760405162461bcd60e51b815260206004820152602e60248201527f45524337323155524953746f726167653a2055524920736574206f66206e6f6e60448201526d32bc34b9ba32b73a103a37b5b2b760911b606482015260840161056d565b6000828152600660209081526040909120825161060e928401906117bc565b6040805160a08101825283815233602080830182815230848601818152871515606087019081526000608088018181528b8252600a909652979097209551865591516001860180546001600160a01b039283166001600160a01b0319909116179055915160029095018054965193511515600160a81b0260ff60a81b19941515600160a01b026001600160a81b031990981696909316959095179590951791909116179091556113ee9184610fc6565b604080513381523060208201528215158183015260006060820152905183917f990195d54ab164a3c2f77b67fd4229a5b5e6850a7c3fc4e45a22633cff9d35ba919081900360800190a25050565b816001600160a01b0316836001600160a01b0316141561149e5760405162461bcd60e51b815260206004820152601960248201527f4552433732313a20617070726f766520746f2063616c6c657200000000000000604482015260640161056d565b6001600160a01b03838116600081815260056020908152604080832094871680845294825291829020805460ff191686151590811790915591519182527f17307eab39ab6107e8899845ad3d59bd9653f200f220920489ca2b5937696c31910160405180910390a3505050565b611516848484610fc6565b611522848484846115b1565b610d645760405162461bcd60e51b815260040161056d90611d23565b606061154982610e7b565b600061156060408051602081019091526000815290565b90506000815111611580576040518060200160405280600081525061067f565b8061158a846116be565b60405160200161159b929190611cdd565b6040516020818303038152906040529392505050565b60006001600160a01b0384163b156116b357604051630a85bd0160e11b81526001600160a01b0385169063150b7a02906115f5903390899088908890600401611d75565b602060405180830381600087803b15801561160f57600080fd5b505af192505050801561163f575060408051601f3d908101601f1916820190925261163c91810190611db2565b60015b611699573d80801561166d576040519150601f19603f3d011682016040523d82523d6000602084013e611672565b606091505b5080516116915760405162461bcd60e51b815260040161056d90611d23565b805181602001fd5b6001600160e01b031916630a85bd0160e11b149050610e73565b506001949350505050565b6060816116e25750506040805180820190915260018152600360fc1b602082015290565b8160005b811561170c57806116f681611cc2565b91506117059050600a83611de5565b91506116e6565b60008167ffffffffffffffff8111156117275761172761198e565b6040519080825280601f01601f191660200182016040528015611751576020820181803683370190505b5090505b8415610e7357611766600183611d0c565b9150611773600a86611df9565b61177e906030611c94565b60f81b81838151811061179357611793611cac565b60200101906001600160f81b031916908160001a9053506117b5600a86611de5565b9450611755565b8280546117c890611bf5565b90600052602060002090601f0160209004810192826117ea5760008555611830565b82601f1061180357805160ff1916838001178555611830565b82800160010185558215611830579182015b82811115611830578251825591602001919060010190611815565b5061183c929150611840565b5090565b5b8082111561183c5760008155600101611841565b6001600160e01b0319811681146104ce57600080fd5b60006020828403121561187d57600080fd5b813561067f81611855565b60005b838110156118a357818101518382015260200161188b565b83811115610d645750506000910152565b600081518084526118cc816020860160208601611888565b601f01601f19169290920160200192915050565b60208152600061067f60208301846118b4565b60006020828403121561190557600080fd5b5035919050565b80356001600160a01b038116811461192357600080fd5b919050565b6000806040838503121561193b57600080fd5b6119448361190c565b946020939093013593505050565b60008060006060848603121561196757600080fd5b6119708461190c565b925061197e6020850161190c565b9150604084013590509250925092565b634e487b7160e01b600052604160045260246000fd5b600067ffffffffffffffff808411156119bf576119bf61198e565b604051601f8501601f19908116603f011681019082821181831017156119e7576119e761198e565b81604052809350858152868686011115611a0057600080fd5b858560208301376000602087830101525050509392505050565b8035801515811461192357600080fd5b60008060408385031215611a3d57600080fd5b823567ffffffffffffffff811115611a5457600080fd5b8301601f81018513611a6557600080fd5b611a74858235602084016119a4565b925050611a8360208401611a1a565b90509250929050565b602080825282518282018190526000919060409081850190868401855b82811015611afd57815180518552868101516001600160a01b039081168887015286820151168686015260608082015115159086015260809081015115159085015260a09093019290850190600101611aa9565b5091979650505050505050565b600060208284031215611b1c57600080fd5b61067f8261190c565b60008060408385031215611b3857600080fd5b611b418361190c565b9150611a8360208401611a1a565b60008060008060808587031215611b6557600080fd5b611b6e8561190c565b9350611b7c6020860161190c565b925060408501359150606085013567ffffffffffffffff811115611b9f57600080fd5b8501601f81018713611bb057600080fd5b611bbf878235602084016119a4565b91505092959194509250565b60008060408385031215611bde57600080fd5b611be78361190c565b9150611a836020840161190c565b600181811c90821680611c0957607f821691505b60208210811415611c2a57634e487b7160e01b600052602260045260246000fd5b50919050565b6020808252602e908201527f4552433732313a2063616c6c6572206973206e6f7420746f6b656e206f776e6560408201526d1c881b9bdc88185c1c1c9bdd995960921b606082015260800190565b634e487b7160e01b600052601160045260246000fd5b60008219821115611ca757611ca7611c7e565b500190565b634e487b7160e01b600052603260045260246000fd5b6000600019821415611cd657611cd6611c7e565b5060010190565b60008351611cef818460208801611888565b835190830190611d03818360208801611888565b01949350505050565b600082821015611d1e57611d1e611c7e565b500390565b60208082526032908201527f4552433732313a207472616e7366657220746f206e6f6e20455243373231526560408201527131b2b4bb32b91034b6b83632b6b2b73a32b960711b606082015260800190565b6001600160a01b0385811682528416602082015260408101839052608060608201819052600090611da8908301846118b4565b9695505050505050565b600060208284031215611dc457600080fd5b815161067f81611855565b634e487b7160e01b600052601260045260246000fd5b600082611df457611df4611dcf565b500490565b600082611e0857611e08611dcf565b50069056fea2646970667358221220203a5c71cd9cb49a45467ee672932d26a47e5aec42ae00307b6ffc6837f32c8164736f6c63430008090033",
  "linkReferences": {},
  "deployedLinkReferences": {}
}